{
  "_format": "hh-sol-artifact-1",
  "contractName": "BenevolenceFund",
  "sourceName": "contracts/BenevolenceFund.sol",
  "abi": [
    {
      "inputs": [],
      "stateMutability": "nonpayable",
      "type": "constructor"
    },
    {
      "anonymous": false,
      "inputs": [
        {
          "indexed": true,
          "internalType": "address",
          "name": "from",
          "type": "address"
        },
        {
          "indexed": false,
          "internalType": "uint256",
          "name": "amount",
          "type": "uint256"
        },
        {
          "indexed": false,
          "internalType": "uint256",
          "name": "timestamp",
          "type": "uint256"
        }
      ],
      "name": "Contributed",
      "type": "event"
    },
    {
      "anonymous": false,
      "inputs": [
        {
          "indexed": true,
          "internalType": "address",
          "name": "first",
          "type": "address"
        },
        {
          "indexed": true,
          "internalType": "address",
          "name": "second",
          "type": "address"
        },
        {
          "indexed": true,
          "internalType": "address",
          "name": "third",
          "type": "address"
        },
        {
          "indexed": false,
          "internalType": "uint256",
          "name": "firstAmount",
          "type": "uint256"
        },
        {
          "indexed": false,
          "internalType": "uint256",
          "name": "secondAmount",
          "type": "uint256"
        },
        {
          "indexed": false,
          "internalType": "uint256",
          "name": "thirdAmount",
          "type": "uint256"
        },
        {
          "indexed": false,
          "internalType": "uint256",
          "name": "timestamp",
          "type": "uint256"
        }
      ],
      "name": "Distributed",
      "type": "event"
    },
    {
      "anonymous": false,
      "inputs": [
        {
          "indexed": true,
          "internalType": "address",
          "name": "previousOwner",
          "type": "address"
        },
        {
          "indexed": true,
          "internalType": "address",
          "name": "newOwner",
          "type": "address"
        }
      ],
      "name": "OwnershipTransferred",
      "type": "event"
    },
    {
      "inputs": [],
      "name": "balance",
      "outputs": [
        {
          "internalType": "uint256",
          "name": "",
          "type": "uint256"
        }
      ],
      "stateMutability": "view",
      "type": "function"
    },
    {
      "inputs": [
        {
          "internalType": "address payable",
          "name": "_first",
          "type": "address"
        },
        {
          "internalType": "address payable",
          "name": "_second",
          "type": "address"
        },
        {
          "internalType": "address payable",
          "name": "_third",
          "type": "address"
        }
      ],
      "name": "distribute",
      "outputs": [],
      "stateMutability": "nonpayable",
      "type": "function"
    },
    {
      "inputs": [],
      "name": "lastDistribution",
      "outputs": [
        {
          "internalType": "uint256",
          "name": "",
          "type": "uint256"
        }
      ],
      "stateMutability": "view",
      "type": "function"
    },
    {
      "inputs": [],
      "name": "owner",
      "outputs": [
        {
          "internalType": "address",
          "name": "",
          "type": "address"
        }
      ],
      "stateMutability": "view",
      "type": "function"
    },
    {
      "inputs": [],
      "name": "renounceOwnership",
      "outputs": [],
      "stateMutability": "nonpayable",
      "type": "function"
    },
    {
      "inputs": [],
      "name": "totalContributed",
      "outputs": [
        {
          "internalType": "uint256",
          "name": "",
          "type": "uint256"
        }
      ],
      "stateMutability": "view",
      "type": "function"
    },
    {
      "inputs": [],
      "name": "totalDistributed",
      "outputs": [
        {
          "internalType": "uint256",
          "name": "",
          "type": "uint256"
        }
      ],
      "stateMutability": "view",
      "type": "function"
    },
    {
      "inputs": [
        {
          "internalType": "address",
          "name": "newOwner",
          "type": "address"
        }
      ],
      "name": "transferOwnership",
      "outputs": [],
      "stateMutability": "nonpayable",
      "type": "function"
    },
    {
      "stateMutability": "payable",
      "type": "receive"
    }
  ],
  "bytecode": "0x608060405234801561001057600080fd5b5061001a33610023565b60018055610073565b600080546001600160a01b038381166001600160a01b0319831681178455604051919092169283917f8be0079c531659141344cd1fd0a4f28419497f9722a3daafe3b4186f6b6457e09190a35050565b610895806100826000396000f3fe60806040526004361061007f5760003560e01c8063a717639c1161004e578063a717639c14610164578063b69ef8a81461017a578063efca2eed1461018d578063f2fde38b146101a357600080fd5b806301ed7f8b146100dc578063023f4147146100fe578063715018a6146101275780638da5cb5b1461013c57600080fd5b366100d75734600260008282546100969190610776565b90915550506040805134815242602082015233917ffa35a310d7113dddce1c275da946348e9aaebf9050b00b372033c4d84b0bd6eb910160405180910390a2005b600080fd5b3480156100e857600080fd5b506100fc6100f73660046107a4565b6101c3565b005b34801561010a57600080fd5b5061011460025481565b6040519081526020015b60405180910390f35b34801561013357600080fd5b506100fc6105d0565b34801561014857600080fd5b506000546040516001600160a01b03909116815260200161011e565b34801561017057600080fd5b5061011460045481565b34801561018657600080fd5b5047610114565b34801561019957600080fd5b5061011460035481565b3480156101af57600080fd5b506100fc6101be3660046107ef565b6105e4565b6101cb61065d565b6101d36106b7565b60045415806101f257506004546101ee9063018b8200610776565b4210155b61024f5760405162461bcd60e51b8152602060048201526024808201527f446973747269627574696f6e20746f6f20736f6f6e202d2d20616e6e75616c206044820152636f6e6c7960e01b60648201526084015b60405180910390fd5b6001600160a01b0383161580159061026f57506001600160a01b03821615155b801561028357506001600160a01b03811615155b6102c35760405162461bcd60e51b8152602060048201526011602482015270496e76616c69642061646472657373657360781b6044820152606401610246565b478061030a5760405162461bcd60e51b81526020600482015260166024820152754e6f2066756e647320746f206469737472696275746560501b6044820152606401610246565b60006064610319836032610813565b610323919061082a565b90506000606461033484601e610813565b61033e919061082a565b905060008161034d848661084c565b610357919061084c565b90506000876001600160a01b03168460405160006040518083038185875af1925050503d80600081146103a6576040519150601f19603f3d011682016040523d82523d6000602084013e6103ab565b606091505b50509050806103fc5760405162461bcd60e51b815260206004820152601860248201527f5472616e7366657220746f206669727374206661696c656400000000000000006044820152606401610246565b6000876001600160a01b03168460405160006040518083038185875af1925050503d8060008114610449576040519150601f19603f3d011682016040523d82523d6000602084013e61044e565b606091505b505090508061049f5760405162461bcd60e51b815260206004820152601960248201527f5472616e7366657220746f207365636f6e64206661696c6564000000000000006044820152606401610246565b6000876001600160a01b03168460405160006040518083038185875af1925050503d80600081146104ec576040519150601f19603f3d011682016040523d82523d6000602084013e6104f1565b606091505b50509050806105425760405162461bcd60e51b815260206004820152601860248201527f5472616e7366657220746f207468697264206661696c656400000000000000006044820152606401610246565b86600360008282546105549190610776565b9091555050426004819055604080518881526020810188905290810186905260608101919091526001600160a01b03808a16918b8216918d16907fc375204c76cd6bc797a85aeca508a94d7f5d52ab7ca0b6e368c9be95862b1c659060800160405180910390a4505050505050506105cb60018055565b505050565b6105d861065d565b6105e26000610710565b565b6105ec61065d565b6001600160a01b0381166106515760405162461bcd60e51b815260206004820152602660248201527f4f776e61626c653a206e6577206f776e657220697320746865207a65726f206160448201526564647265737360d01b6064820152608401610246565b61065a81610710565b50565b6000546001600160a01b031633146105e25760405162461bcd60e51b815260206004820181905260248201527f4f776e61626c653a2063616c6c6572206973206e6f7420746865206f776e65726044820152606401610246565b6002600154036107095760405162461bcd60e51b815260206004820152601f60248201527f5265656e7472616e637947756172643a207265656e7472616e742063616c6c006044820152606401610246565b6002600155565b600080546001600160a01b038381166001600160a01b0319831681178455604051919092169283917f8be0079c531659141344cd1fd0a4f28419497f9722a3daafe3b4186f6b6457e09190a35050565b634e487b7160e01b600052601160045260246000fd5b8082018082111561078957610789610760565b92915050565b6001600160a01b038116811461065a57600080fd5b6000806000606084860312156107b957600080fd5b83356107c48161078f565b925060208401356107d48161078f565b915060408401356107e48161078f565b809150509250925092565b60006020828403121561080157600080fd5b813561080c8161078f565b9392505050565b808202811582820484141761078957610789610760565b60008261084757634e487b7160e01b600052601260045260246000fd5b500490565b818103818111156107895761078961076056fea264697066735822122042a8480eb548cbc57821c9ca01979843ab0644f8e7aa0acd1a9a4855cbcbcbff64736f6c63430008140033",
  "linkReferences": {},
  "deployedLinkReferences": {}
}