{
  "_format": "hh-sol-artifact-1",
  "contractName": "SovereignAchievement",
  "sourceName": "contracts/SovereignAchievement.sol",
  "abi": [
    {
      "inputs": [
        {
          "internalType": "string",
          "name": "_name",
          "type": "string"
        },
        {
          "internalType": "string",
          "name": "_uri",
          "type": "string"
        }
      ],
      "stateMutability": "nonpayable",
      "type": "constructor"
    },
    {
      "anonymous": false,
      "inputs": [
        {
          "indexed": true,
          "internalType": "address",
          "name": "account",
          "type": "address"
        },
        {
          "indexed": true,
          "internalType": "address",
          "name": "operator",
          "type": "address"
        },
        {
          "indexed": false,
          "internalType": "bool",
          "name": "approved",
          "type": "bool"
        }
      ],
      "name": "ApprovalForAll",
      "type": "event"
    },
    {
      "anonymous": false,
      "inputs": [
        {
          "indexed": true,
          "internalType": "address",
          "name": "previousOwner",
          "type": "address"
        },
        {
          "indexed": true,
          "internalType": "address",
          "name": "newOwner",
          "type": "address"
        }
      ],
      "name": "OwnershipTransferred",
      "type": "event"
    },
    {
      "anonymous": false,
      "inputs": [
        {
          "indexed": true,
          "internalType": "address",
          "name": "recipient",
          "type": "address"
        },
        {
          "indexed": false,
          "internalType": "uint256",
          "name": "tierId",
          "type": "uint256"
        },
        {
          "indexed": false,
          "internalType": "string",
          "name": "role",
          "type": "string"
        },
        {
          "indexed": false,
          "internalType": "uint256",
          "name": "timestamp",
          "type": "uint256"
        }
      ],
      "name": "TierAwarded",
      "type": "event"
    },
    {
      "anonymous": false,
      "inputs": [
        {
          "indexed": true,
          "internalType": "address",
          "name": "operator",
          "type": "address"
        },
        {
          "indexed": true,
          "internalType": "address",
          "name": "from",
          "type": "address"
        },
        {
          "indexed": true,
          "internalType": "address",
          "name": "to",
          "type": "address"
        },
        {
          "indexed": false,
          "internalType": "uint256[]",
          "name": "ids",
          "type": "uint256[]"
        },
        {
          "indexed": false,
          "internalType": "uint256[]",
          "name": "values",
          "type": "uint256[]"
        }
      ],
      "name": "TransferBatch",
      "type": "event"
    },
    {
      "anonymous": false,
      "inputs": [
        {
          "indexed": true,
          "internalType": "address",
          "name": "operator",
          "type": "address"
        },
        {
          "indexed": true,
          "internalType": "address",
          "name": "from",
          "type": "address"
        },
        {
          "indexed": true,
          "internalType": "address",
          "name": "to",
          "type": "address"
        },
        {
          "indexed": false,
          "internalType": "uint256",
          "name": "id",
          "type": "uint256"
        },
        {
          "indexed": false,
          "internalType": "uint256",
          "name": "value",
          "type": "uint256"
        }
      ],
      "name": "TransferSingle",
      "type": "event"
    },
    {
      "anonymous": false,
      "inputs": [
        {
          "indexed": false,
          "internalType": "string",
          "name": "value",
          "type": "string"
        },
        {
          "indexed": true,
          "internalType": "uint256",
          "name": "id",
          "type": "uint256"
        }
      ],
      "name": "URI",
      "type": "event"
    },
    {
      "inputs": [],
      "name": "GUIDE_OFFSET",
      "outputs": [
        {
          "internalType": "uint256",
          "name": "",
          "type": "uint256"
        }
      ],
      "stateMutability": "view",
      "type": "function"
    },
    {
      "inputs": [],
      "name": "MAX_TIER",
      "outputs": [
        {
          "internalType": "uint256",
          "name": "",
          "type": "uint256"
        }
      ],
      "stateMutability": "view",
      "type": "function"
    },
    {
      "inputs": [],
      "name": "PARTICIPANT_OFFSET",
      "outputs": [
        {
          "internalType": "uint256",
          "name": "",
          "type": "uint256"
        }
      ],
      "stateMutability": "view",
      "type": "function"
    },
    {
      "inputs": [
        {
          "internalType": "address",
          "name": "_to",
          "type": "address"
        },
        {
          "internalType": "uint256",
          "name": "_tier",
          "type": "uint256"
        }
      ],
      "name": "awardGuideTier",
      "outputs": [],
      "stateMutability": "nonpayable",
      "type": "function"
    },
    {
      "inputs": [
        {
          "internalType": "address",
          "name": "_to",
          "type": "address"
        },
        {
          "internalType": "uint256",
          "name": "_tier",
          "type": "uint256"
        }
      ],
      "name": "awardParticipantTier",
      "outputs": [],
      "stateMutability": "nonpayable",
      "type": "function"
    },
    {
      "inputs": [
        {
          "internalType": "address",
          "name": "account",
          "type": "address"
        },
        {
          "internalType": "uint256",
          "name": "id",
          "type": "uint256"
        }
      ],
      "name": "balanceOf",
      "outputs": [
        {
          "internalType": "uint256",
          "name": "",
          "type": "uint256"
        }
      ],
      "stateMutability": "view",
      "type": "function"
    },
    {
      "inputs": [
        {
          "internalType": "address[]",
          "name": "accounts",
          "type": "address[]"
        },
        {
          "internalType": "uint256[]",
          "name": "ids",
          "type": "uint256[]"
        }
      ],
      "name": "balanceOfBatch",
      "outputs": [
        {
          "internalType": "uint256[]",
          "name": "",
          "type": "uint256[]"
        }
      ],
      "stateMutability": "view",
      "type": "function"
    },
    {
      "inputs": [
        {
          "internalType": "address",
          "name": "",
          "type": "address"
        }
      ],
      "name": "guideTier",
      "outputs": [
        {
          "internalType": "uint256",
          "name": "",
          "type": "uint256"
        }
      ],
      "stateMutability": "view",
      "type": "function"
    },
    {
      "inputs": [
        {
          "internalType": "address",
          "name": "account",
          "type": "address"
        },
        {
          "internalType": "address",
          "name": "operator",
          "type": "address"
        }
      ],
      "name": "isApprovedForAll",
      "outputs": [
        {
          "internalType": "bool",
          "name": "",
          "type": "bool"
        }
      ],
      "stateMutability": "view",
      "type": "function"
    },
    {
      "inputs": [],
      "name": "name",
      "outputs": [
        {
          "internalType": "string",
          "name": "",
          "type": "string"
        }
      ],
      "stateMutability": "view",
      "type": "function"
    },
    {
      "inputs": [],
      "name": "owner",
      "outputs": [
        {
          "internalType": "address",
          "name": "",
          "type": "address"
        }
      ],
      "stateMutability": "view",
      "type": "function"
    },
    {
      "inputs": [
        {
          "internalType": "address",
          "name": "",
          "type": "address"
        }
      ],
      "name": "participantTier",
      "outputs": [
        {
          "internalType": "uint256",
          "name": "",
          "type": "uint256"
        }
      ],
      "stateMutability": "view",
      "type": "function"
    },
    {
      "inputs": [],
      "name": "renounceOwnership",
      "outputs": [],
      "stateMutability": "nonpayable",
      "type": "function"
    },
    {
      "inputs": [
        {
          "internalType": "address",
          "name": "from",
          "type": "address"
        },
        {
          "internalType": "address",
          "name": "to",
          "type": "address"
        },
        {
          "internalType": "uint256[]",
          "name": "ids",
          "type": "uint256[]"
        },
        {
          "internalType": "uint256[]",
          "name": "amounts",
          "type": "uint256[]"
        },
        {
          "internalType": "bytes",
          "name": "data",
          "type": "bytes"
        }
      ],
      "name": "safeBatchTransferFrom",
      "outputs": [],
      "stateMutability": "nonpayable",
      "type": "function"
    },
    {
      "inputs": [
        {
          "internalType": "address",
          "name": "from",
          "type": "address"
        },
        {
          "internalType": "address",
          "name": "to",
          "type": "address"
        },
        {
          "internalType": "uint256",
          "name": "id",
          "type": "uint256"
        },
        {
          "internalType": "uint256",
          "name": "amount",
          "type": "uint256"
        },
        {
          "internalType": "bytes",
          "name": "data",
          "type": "bytes"
        }
      ],
      "name": "safeTransferFrom",
      "outputs": [],
      "stateMutability": "nonpayable",
      "type": "function"
    },
    {
      "inputs": [
        {
          "internalType": "address",
          "name": "operator",
          "type": "address"
        },
        {
          "internalType": "bool",
          "name": "approved",
          "type": "bool"
        }
      ],
      "name": "setApprovalForAll",
      "outputs": [],
      "stateMutability": "nonpayable",
      "type": "function"
    },
    {
      "inputs": [
        {
          "internalType": "string",
          "name": "_newURI",
          "type": "string"
        }
      ],
      "name": "setURI",
      "outputs": [],
      "stateMutability": "nonpayable",
      "type": "function"
    },
    {
      "inputs": [
        {
          "internalType": "bytes4",
          "name": "interfaceId",
          "type": "bytes4"
        }
      ],
      "name": "supportsInterface",
      "outputs": [
        {
          "internalType": "bool",
          "name": "",
          "type": "bool"
        }
      ],
      "stateMutability": "view",
      "type": "function"
    },
    {
      "inputs": [
        {
          "internalType": "address",
          "name": "newOwner",
          "type": "address"
        }
      ],
      "name": "transferOwnership",
      "outputs": [],
      "stateMutability": "nonpayable",
      "type": "function"
    },
    {
      "inputs": [
        {
          "internalType": "uint256",
          "name": "",
          "type": "uint256"
        }
      ],
      "name": "uri",
      "outputs": [
        {
          "internalType": "string",
          "name": "",
          "type": "string"
        }
      ],
      "stateMutability": "view",
      "type": "function"
    }
  ],
  "bytecode": "0x60806040523480156200001157600080fd5b50604051620020103803806200201083398101604081905262000034916200018c565b80620000408162000063565b506200004c3362000075565b60046200005a838262000285565b50505062000351565b600262000071828262000285565b5050565b600380546001600160a01b038381166001600160a01b0319831681179093556040519116919082907f8be0079c531659141344cd1fd0a4f28419497f9722a3daafe3b4186f6b6457e090600090a35050565b634e487b7160e01b600052604160045260246000fd5b600082601f830112620000ef57600080fd5b81516001600160401b03808211156200010c576200010c620000c7565b604051601f8301601f19908116603f01168101908282118183101715620001375762000137620000c7565b816040528381526020925086838588010111156200015457600080fd5b600091505b8382101562000178578582018301518183018401529082019062000159565b600093810190920192909252949350505050565b60008060408385031215620001a057600080fd5b82516001600160401b0380821115620001b857600080fd5b620001c686838701620000dd565b93506020850151915080821115620001dd57600080fd5b50620001ec85828601620000dd565b9150509250929050565b600181811c908216806200020b57607f821691505b6020821081036200022c57634e487b7160e01b600052602260045260246000fd5b50919050565b601f8211156200028057600081815260208120601f850160051c810160208610156200025b5750805b601f850160051c820191505b818110156200027c5782815560010162000267565b5050505b505050565b81516001600160401b03811115620002a157620002a1620000c7565b620002b981620002b28454620001f6565b8462000232565b602080601f831160018114620002f15760008415620002d85750858301515b600019600386901b1c1916600185901b1785556200027c565b600085815260208120601f198616915b82811015620003225788860151825594840194600190910190840162000301565b5085821015620003415787850151600019600388901b60f8161c191681555b5050505050600190811b01905550565b611caf80620003616000396000f3fe608060405234801561001057600080fd5b506004361061012b5760003560e01c80637c1480cb116100ad578063e985e9c511610071578063e985e9c51461026d578063f242432a146102a9578063f2fde38b146102bc578063f490e0ad146102cf578063fd588ff3146102ef57600080fd5b80637c1480cb146102245780638da5cb5b1461022c578063a22cb46514610247578063a9cff0021461025a578063af3a19c71461022457600080fd5b80632eb2c2d6116100f45780632eb2c2d6146101b65780633eddbe0f146101c95780634e1273f4146101e95780634f739d3614610209578063715018a61461021c57600080fd5b8062fdd58e1461013057806301ffc9a71461015657806302fe53051461017957806306fdde031461018e5780630e89341c146101a3575b600080fd5b61014361013e3660046112f4565b6102f7565b6040519081526020015b60405180910390f35b610169610164366004611334565b610390565b604051901515815260200161014d565b61018c6101873660046113f9565b6103e0565b005b6101966103f4565b60405161014d9190611490565b6101966101b13660046114a3565b610482565b61018c6101c4366004611571565b610516565b6101436101d736600461161b565b60056020526000908152604090205481565b6101fc6101f7366004611636565b610562565b60405161014d919061173c565b61018c6102173660046112f4565b61068c565b61018c6107fe565b610143600a81565b6003546040516001600160a01b03909116815260200161014d565b61018c61025536600461174f565b610812565b61018c6102683660046112f4565b610821565b61016961027b36600461178b565b6001600160a01b03918216600090815260016020908152604080832093909416825291909152205460ff1690565b61018c6102b73660046117be565b610968565b61018c6102ca36600461161b565b6109ad565b6101436102dd36600461161b565b60066020526000908152604090205481565b610143600081565b60006001600160a01b0383166103675760405162461bcd60e51b815260206004820152602a60248201527f455243313135353a2061646472657373207a65726f206973206e6f742061207660448201526930b634b21037bbb732b960b11b60648201526084015b60405180910390fd5b506000818152602081815260408083206001600160a01b03861684529091529020545b92915050565b60006001600160e01b03198216636cdb3d1360e11b14806103c157506001600160e01b031982166303a24d0760e21b145b8061038a57506301ffc9a760e01b6001600160e01b031983161461038a565b6103e8610a23565b6103f181610a7d565b50565b6004805461040190611823565b80601f016020809104026020016040519081016040528092919081815260200182805461042d90611823565b801561047a5780601f1061044f5761010080835404028352916020019161047a565b820191906000526020600020905b81548152906001019060200180831161045d57829003601f168201915b505050505081565b60606002805461049190611823565b80601f01602080910402602001604051908101604052809291908181526020018280546104bd90611823565b801561050a5780601f106104df5761010080835404028352916020019161050a565b820191906000526020600020905b8154815290600101906020018083116104ed57829003601f168201915b50505050509050919050565b6001600160a01b0385163314806105325750610532853361027b565b61054e5760405162461bcd60e51b815260040161035e9061185d565b61055b8585858585610a89565b5050505050565b606081518351146105c75760405162461bcd60e51b815260206004820152602960248201527f455243313135353a206163636f756e747320616e6420696473206c656e677468604482015268040dad2e6dac2e8c6d60bb1b606482015260840161035e565b6000835167ffffffffffffffff8111156105e3576105e3611358565b60405190808252806020026020018201604052801561060c578160200160208202803683370190505b50905060005b845181101561068457610657858281518110610630576106306118ab565b602002602001015185838151811061064a5761064a6118ab565b60200260200101516102f7565b828281518110610669576106696118ab565b602090810291909101015261067d816118d7565b9050610612565b509392505050565b610694610a23565b600181101580156106a65750600a8111155b6106e15760405162461bcd60e51b815260206004820152600c60248201526b24b73b30b634b2103a34b2b960a11b604482015260640161035e565b6001600160a01b03821660009081526005602052604090205481116107485760405162461bcd60e51b815260206004820152601d60248201527f5469657220616c72656164792061776172646564206f72206c6f776572000000604482015260640161035e565b6001600160a01b038216600090815260056020526040812082905561078b9083906107749084906118f0565b600160405180602001604052806000815250610c74565b816001600160a01b03167f89ecd2670cc29d5b2fb86ad1389d198d25e1071ac1e29479692db798c705717782426040516107f2929190918252606060208301819052600b908301526a1c185c9d1a58da5c185b9d60aa1b6080830152604082015260a00190565b60405180910390a25050565b610806610a23565b6108106000610d97565b565b61081d338383610de9565b5050565b610829610a23565b6001811015801561083b5750600a8111155b6108765760405162461bcd60e51b815260206004820152600c60248201526b24b73b30b634b2103a34b2b960a11b604482015260640161035e565b6001600160a01b03821660009081526006602052604090205481116108dd5760405162461bcd60e51b815260206004820152601d60248201527f5469657220616c72656164792061776172646564206f72206c6f776572000000604482015260640161035e565b6001600160a01b03821660009081526006602052604090208190556109078261077483600a6118f0565b816001600160a01b03167f89ecd2670cc29d5b2fb86ad1389d198d25e1071ac1e29479692db798c705717782426040516107f292919091825260606020830181905260059083015264677569646560d81b6080830152604082015260a00190565b6001600160a01b0385163314806109845750610984853361027b565b6109a05760405162461bcd60e51b815260040161035e9061185d565b61055b8585858585610ec9565b6109b5610a23565b6001600160a01b038116610a1a5760405162461bcd60e51b815260206004820152602660248201527f4f776e61626c653a206e6577206f776e657220697320746865207a65726f206160448201526564647265737360d01b606482015260840161035e565b6103f181610d97565b6003546001600160a01b031633146108105760405162461bcd60e51b815260206004820181905260248201527f4f776e61626c653a2063616c6c6572206973206e6f7420746865206f776e6572604482015260640161035e565b600261081d828261194e565b8151835114610aeb5760405162461bcd60e51b815260206004820152602860248201527f455243313135353a2069647320616e6420616d6f756e7473206c656e677468206044820152670dad2e6dac2e8c6d60c31b606482015260840161035e565b6001600160a01b038416610b115760405162461bcd60e51b815260040161035e90611a0e565b33610b20818787878787611001565b60005b8451811015610c06576000858281518110610b4057610b406118ab565b602002602001015190506000858381518110610b5e57610b5e6118ab565b602090810291909101810151600084815280835260408082206001600160a01b038e168352909352919091205490915081811015610bae5760405162461bcd60e51b815260040161035e90611a53565b6000838152602081815260408083206001600160a01b038e8116855292528083208585039055908b16825281208054849290610beb9084906118f0565b9250508190555050505080610bff906118d7565b9050610b23565b50846001600160a01b0316866001600160a01b0316826001600160a01b03167f4a39dc06d4c0dbc64b70af90fd698a233a518aa5d07e595d983b8c0526c8f7fb8787604051610c56929190611a9d565b60405180910390a4610c6c818787878787611077565b505050505050565b6001600160a01b038416610cd45760405162461bcd60e51b815260206004820152602160248201527f455243313135353a206d696e7420746f20746865207a65726f206164647265736044820152607360f81b606482015260840161035e565b336000610ce0856111d2565b90506000610ced856111d2565b9050610cfe83600089858589611001565b6000868152602081815260408083206001600160a01b038b16845290915281208054879290610d2e9084906118f0565b909155505060408051878152602081018790526001600160a01b03808a1692600092918716917fc3d58168c5ae7397731d063d5bbf3d657854427343f4c083240f7aacaa2d0f62910160405180910390a4610d8e8360008989898961121d565b50505050505050565b600380546001600160a01b038381166001600160a01b0319831681179093556040519116919082907f8be0079c531659141344cd1fd0a4f28419497f9722a3daafe3b4186f6b6457e090600090a35050565b816001600160a01b0316836001600160a01b031603610e5c5760405162461bcd60e51b815260206004820152602960248201527f455243313135353a2073657474696e6720617070726f76616c20737461747573604482015268103337b91039b2b63360b91b606482015260840161035e565b6001600160a01b03838116600081815260016020908152604080832094871680845294825291829020805460ff191686151590811790915591519182527f17307eab39ab6107e8899845ad3d59bd9653f200f220920489ca2b5937696c31910160405180910390a3505050565b6001600160a01b038416610eef5760405162461bcd60e51b815260040161035e90611a0e565b336000610efb856111d2565b90506000610f08856111d2565b9050610f18838989858589611001565b6000868152602081815260408083206001600160a01b038c16845290915290205485811015610f595760405162461bcd60e51b815260040161035e90611a53565b6000878152602081815260408083206001600160a01b038d8116855292528083208985039055908a16825281208054889290610f969084906118f0565b909155505060408051888152602081018890526001600160a01b03808b16928c821692918816917fc3d58168c5ae7397731d063d5bbf3d657854427343f4c083240f7aacaa2d0f62910160405180910390a4610ff6848a8a8a8a8a61121d565b505050505050505050565b6001600160a01b038516156110725760405162461bcd60e51b815260206004820152603160248201527f536f7665726569676e416368696576656d656e743a20736f756c626f756e642c604482015270206e6f6e2d7472616e7366657261626c6560781b606482015260840161035e565b610c6c565b6001600160a01b0384163b15610c6c5760405163bc197c8160e01b81526001600160a01b0385169063bc197c81906110bb9089908990889088908890600401611acb565b6020604051808303816000875af19250505080156110f6575060408051601f3d908101601f191682019092526110f391810190611b29565b60015b6111a257611102611b46565b806308c379a00361113b5750611116611b62565b80611121575061113d565b8060405162461bcd60e51b815260040161035e9190611490565b505b60405162461bcd60e51b815260206004820152603460248201527f455243313135353a207472616e7366657220746f206e6f6e2d455243313135356044820152732932b1b2b4bb32b91034b6b83632b6b2b73a32b960611b606482015260840161035e565b6001600160e01b0319811663bc197c8160e01b14610d8e5760405162461bcd60e51b815260040161035e90611bec565b6040805160018082528183019092526060916000919060208083019080368337019050509050828160008151811061120c5761120c6118ab565b602090810291909101015292915050565b6001600160a01b0384163b15610c6c5760405163f23a6e6160e01b81526001600160a01b0385169063f23a6e61906112619089908990889088908890600401611c34565b6020604051808303816000875af192505050801561129c575060408051601f3d908101601f1916820190925261129991810190611b29565b60015b6112a857611102611b46565b6001600160e01b0319811663f23a6e6160e01b14610d8e5760405162461bcd60e51b815260040161035e90611bec565b80356001600160a01b03811681146112ef57600080fd5b919050565b6000806040838503121561130757600080fd5b611310836112d8565b946020939093013593505050565b6001600160e01b0319811681146103f157600080fd5b60006020828403121561134657600080fd5b81356113518161131e565b9392505050565b634e487b7160e01b600052604160045260246000fd5b601f8201601f1916810167ffffffffffffffff8111828210171561139457611394611358565b6040525050565b600067ffffffffffffffff8311156113b5576113b5611358565b6040516113cc601f8501601f19166020018261136e565b8091508381528484840111156113e157600080fd5b83836020830137600060208583010152509392505050565b60006020828403121561140b57600080fd5b813567ffffffffffffffff81111561142257600080fd5b8201601f8101841361143357600080fd5b6114428482356020840161139b565b949350505050565b6000815180845260005b8181101561147057602081850181015186830182015201611454565b506000602082860101526020601f19601f83011685010191505092915050565b602081526000611351602083018461144a565b6000602082840312156114b557600080fd5b5035919050565b600067ffffffffffffffff8211156114d6576114d6611358565b5060051b60200190565b600082601f8301126114f157600080fd5b813560206114fe826114bc565b60405161150b828261136e565b83815260059390931b850182019282810191508684111561152b57600080fd5b8286015b84811015611546578035835291830191830161152f565b509695505050505050565b600082601f83011261156257600080fd5b6113518383356020850161139b565b600080600080600060a0868803121561158957600080fd5b611592866112d8565b94506115a0602087016112d8565b9350604086013567ffffffffffffffff808211156115bd57600080fd5b6115c989838a016114e0565b945060608801359150808211156115df57600080fd5b6115eb89838a016114e0565b9350608088013591508082111561160157600080fd5b5061160e88828901611551565b9150509295509295909350565b60006020828403121561162d57600080fd5b611351826112d8565b6000806040838503121561164957600080fd5b823567ffffffffffffffff8082111561166157600080fd5b818501915085601f83011261167557600080fd5b81356020611682826114bc565b60405161168f828261136e565b83815260059390931b85018201928281019150898411156116af57600080fd5b948201945b838610156116d4576116c5866112d8565b825294820194908201906116b4565b965050860135925050808211156116ea57600080fd5b506116f7858286016114e0565b9150509250929050565b600081518084526020808501945080840160005b8381101561173157815187529582019590820190600101611715565b509495945050505050565b6020815260006113516020830184611701565b6000806040838503121561176257600080fd5b61176b836112d8565b91506020830135801515811461178057600080fd5b809150509250929050565b6000806040838503121561179e57600080fd5b6117a7836112d8565b91506117b5602084016112d8565b90509250929050565b600080600080600060a086880312156117d657600080fd5b6117df866112d8565b94506117ed602087016112d8565b93506040860135925060608601359150608086013567ffffffffffffffff81111561181757600080fd5b61160e88828901611551565b600181811c9082168061183757607f821691505b60208210810361185757634e487b7160e01b600052602260045260246000fd5b50919050565b6020808252602e908201527f455243313135353a2063616c6c6572206973206e6f7420746f6b656e206f776e60408201526d195c881bdc88185c1c1c9bdd995960921b606082015260800190565b634e487b7160e01b600052603260045260246000fd5b634e487b7160e01b600052601160045260246000fd5b6000600182016118e9576118e96118c1565b5060010190565b8082018082111561038a5761038a6118c1565b601f82111561194957600081815260208120601f850160051c8101602086101561192a5750805b601f850160051c820191505b81811015610c6c57828155600101611936565b505050565b815167ffffffffffffffff81111561196857611968611358565b61197c816119768454611823565b84611903565b602080601f8311600181146119b157600084156119995750858301515b600019600386901b1c1916600185901b178555610c6c565b600085815260208120601f198616915b828110156119e0578886015182559484019460019091019084016119c1565b50858210156119fe5787850151600019600388901b60f8161c191681555b5050505050600190811b01905550565b60208082526025908201527f455243313135353a207472616e7366657220746f20746865207a65726f206164604082015264647265737360d81b606082015260800190565b6020808252602a908201527f455243313135353a20696e73756666696369656e742062616c616e636520666f60408201526939103a3930b739b332b960b11b606082015260800190565b604081526000611ab06040830185611701565b8281036020840152611ac28185611701565b95945050505050565b6001600160a01b0386811682528516602082015260a060408201819052600090611af790830186611701565b8281036060840152611b098186611701565b90508281036080840152611b1d818561144a565b98975050505050505050565b600060208284031215611b3b57600080fd5b81516113518161131e565b600060033d1115611b5f5760046000803e5060005160e01c5b90565b600060443d1015611b705790565b6040516003193d81016004833e81513d67ffffffffffffffff8160248401118184111715611ba057505050505090565b8285019150815181811115611bb85750505050505090565b843d8701016020828501011115611bd25750505050505090565b611be16020828601018761136e565b509095945050505050565b60208082526028908201527f455243313135353a204552433131353552656365697665722072656a656374656040820152676420746f6b656e7360c01b606082015260800190565b6001600160a01b03868116825285166020820152604081018490526060810183905260a060808201819052600090611c6e9083018461144a565b97965050505050505056fea26469706673582212202be6064384e3d7b3d16cd7fb05ffd1d5bedc4b9ed190bb9b981970b02dab9fe264736f6c63430008140033",
  "linkReferences": {},
  "deployedLinkReferences": {}
}