{
  "_format": "hh-sol-artifact-1",
  "contractName": "SovereignLedger",
  "sourceName": "contracts/SovereignLedger.sol",
  "abi": [
    {
      "inputs": [],
      "stateMutability": "nonpayable",
      "type": "constructor"
    },
    {
      "anonymous": false,
      "inputs": [
        {
          "indexed": true,
          "internalType": "uint256",
          "name": "claimId",
          "type": "uint256"
        },
        {
          "indexed": true,
          "internalType": "address",
          "name": "participant",
          "type": "address"
        },
        {
          "indexed": true,
          "internalType": "address",
          "name": "guide",
          "type": "address"
        },
        {
          "indexed": false,
          "internalType": "string",
          "name": "sessionHash",
          "type": "string"
        },
        {
          "indexed": false,
          "internalType": "string",
          "name": "claimType",
          "type": "string"
        },
        {
          "indexed": false,
          "internalType": "uint256",
          "name": "timestamp",
          "type": "uint256"
        }
      ],
      "name": "ClaimRegistered",
      "type": "event"
    },
    {
      "anonymous": false,
      "inputs": [
        {
          "indexed": true,
          "internalType": "uint256",
          "name": "claimId",
          "type": "uint256"
        },
        {
          "indexed": true,
          "internalType": "address",
          "name": "verifier",
          "type": "address"
        }
      ],
      "name": "ClaimVerified",
      "type": "event"
    },
    {
      "anonymous": false,
      "inputs": [
        {
          "indexed": true,
          "internalType": "address",
          "name": "previousOwner",
          "type": "address"
        },
        {
          "indexed": true,
          "internalType": "address",
          "name": "newOwner",
          "type": "address"
        }
      ],
      "name": "OwnershipTransferred",
      "type": "event"
    },
    {
      "anonymous": false,
      "inputs": [
        {
          "indexed": false,
          "internalType": "address",
          "name": "account",
          "type": "address"
        }
      ],
      "name": "Paused",
      "type": "event"
    },
    {
      "anonymous": false,
      "inputs": [
        {
          "indexed": false,
          "internalType": "address",
          "name": "account",
          "type": "address"
        }
      ],
      "name": "Unpaused",
      "type": "event"
    },
    {
      "inputs": [],
      "name": "claimCount",
      "outputs": [
        {
          "internalType": "uint256",
          "name": "",
          "type": "uint256"
        }
      ],
      "stateMutability": "view",
      "type": "function"
    },
    {
      "inputs": [
        {
          "internalType": "uint256",
          "name": "",
          "type": "uint256"
        }
      ],
      "name": "claims",
      "outputs": [
        {
          "internalType": "address",
          "name": "participant",
          "type": "address"
        },
        {
          "internalType": "address",
          "name": "guide",
          "type": "address"
        },
        {
          "internalType": "string",
          "name": "sessionHash",
          "type": "string"
        },
        {
          "internalType": "string",
          "name": "claimType",
          "type": "string"
        },
        {
          "internalType": "uint256",
          "name": "timestamp",
          "type": "uint256"
        },
        {
          "internalType": "bool",
          "name": "verified",
          "type": "bool"
        }
      ],
      "stateMutability": "view",
      "type": "function"
    },
    {
      "inputs": [
        {
          "internalType": "address",
          "name": "_guide",
          "type": "address"
        }
      ],
      "name": "getGuideClaims",
      "outputs": [
        {
          "internalType": "uint256[]",
          "name": "",
          "type": "uint256[]"
        }
      ],
      "stateMutability": "view",
      "type": "function"
    },
    {
      "inputs": [
        {
          "internalType": "address",
          "name": "_participant",
          "type": "address"
        }
      ],
      "name": "getParticipantClaims",
      "outputs": [
        {
          "internalType": "uint256[]",
          "name": "",
          "type": "uint256[]"
        }
      ],
      "stateMutability": "view",
      "type": "function"
    },
    {
      "inputs": [
        {
          "internalType": "address",
          "name": "",
          "type": "address"
        },
        {
          "internalType": "uint256",
          "name": "",
          "type": "uint256"
        }
      ],
      "name": "guideClaims",
      "outputs": [
        {
          "internalType": "uint256",
          "name": "",
          "type": "uint256"
        }
      ],
      "stateMutability": "view",
      "type": "function"
    },
    {
      "inputs": [],
      "name": "owner",
      "outputs": [
        {
          "internalType": "address",
          "name": "",
          "type": "address"
        }
      ],
      "stateMutability": "view",
      "type": "function"
    },
    {
      "inputs": [
        {
          "internalType": "address",
          "name": "",
          "type": "address"
        },
        {
          "internalType": "uint256",
          "name": "",
          "type": "uint256"
        }
      ],
      "name": "participantClaims",
      "outputs": [
        {
          "internalType": "uint256",
          "name": "",
          "type": "uint256"
        }
      ],
      "stateMutability": "view",
      "type": "function"
    },
    {
      "inputs": [],
      "name": "pause",
      "outputs": [],
      "stateMutability": "nonpayable",
      "type": "function"
    },
    {
      "inputs": [],
      "name": "paused",
      "outputs": [
        {
          "internalType": "bool",
          "name": "",
          "type": "bool"
        }
      ],
      "stateMutability": "view",
      "type": "function"
    },
    {
      "inputs": [
        {
          "internalType": "address",
          "name": "_participant",
          "type": "address"
        },
        {
          "internalType": "address",
          "name": "_guide",
          "type": "address"
        },
        {
          "internalType": "string",
          "name": "_sessionHash",
          "type": "string"
        },
        {
          "internalType": "string",
          "name": "_claimType",
          "type": "string"
        }
      ],
      "name": "registerClaim",
      "outputs": [
        {
          "internalType": "uint256",
          "name": "",
          "type": "uint256"
        }
      ],
      "stateMutability": "nonpayable",
      "type": "function"
    },
    {
      "inputs": [],
      "name": "renounceOwnership",
      "outputs": [],
      "stateMutability": "nonpayable",
      "type": "function"
    },
    {
      "inputs": [
        {
          "internalType": "address",
          "name": "newOwner",
          "type": "address"
        }
      ],
      "name": "transferOwnership",
      "outputs": [],
      "stateMutability": "nonpayable",
      "type": "function"
    },
    {
      "inputs": [],
      "name": "unpause",
      "outputs": [],
      "stateMutability": "nonpayable",
      "type": "function"
    },
    {
      "inputs": [
        {
          "internalType": "uint256",
          "name": "_claimId",
          "type": "uint256"
        }
      ],
      "name": "verifyClaim",
      "outputs": [],
      "stateMutability": "nonpayable",
      "type": "function"
    }
  ],
  "bytecode": "0x608060405234801561001057600080fd5b5061001a3361001f565b61006f565b600080546001600160a01b038381166001600160a01b0319831681178455604051919092169283917f8be0079c531659141344cd1fd0a4f28419497f9722a3daafe3b4186f6b6457e09190a35050565b610ed98061007e6000396000f3fe608060405234801561001057600080fd5b50600436106100ea5760003560e01c80638da5cb5b1161008c578063afdfec1a11610066578063afdfec1a146101c8578063c0d7e2b6146101db578063dd471e35146101ee578063f2fde38b1461020157600080fd5b80638da5cb5b146101685780639b54e74814610183578063a888c2cd146101a357600080fd5b80635c975abb116100c85780635c975abb14610132578063715018a61461014f5780638456cb59146101575780638da4d3c91461015f57600080fd5b80633f4ba83a146100ef5780634d44e291146100f9578063536cf17c1461011f575b600080fd5b6100f7610214565b005b61010c610107366004610a98565b61025c565b6040519081526020015b60405180910390f35b61010c61012d366004610a98565b61028d565b60055461013f9060ff1681565b6040519015158152602001610116565b6100f76102a9565b6100f76102bd565b61010c60015481565b6000546040516001600160a01b039091168152602001610116565b610196610191366004610ac2565b610302565b6040516101169190610ae4565b6101b66101b1366004610b28565b61036e565b60405161011696959493929190610b87565b6101966101d6366004610ac2565b6104c6565b6100f76101e9366004610b28565b610530565b61010c6101fc366004610c29565b610675565b6100f761020f366004610ac2565b610959565b61021c6109d2565b6005805460ff191690556040513381527f5db9ee0a495bf2e6ff9c91a7834c1ba4fdd244a5e8aa4e537bd38aeae4b073aa906020015b60405180910390a1565b6003602052816000526040600020818154811061027857600080fd5b90600052602060002001600091509150505481565b6004602052816000526040600020818154811061027857600080fd5b6102b16109d2565b6102bb6000610a2c565b565b6102c56109d2565b6005805460ff191660011790556040513381527f62e78cea01bee320cd4e420270b5ea74000d11b0c9f74754ebdbfc544b05a25890602001610252565b6001600160a01b03811660009081526004602090815260409182902080548351818402810184019094528084526060939283018282801561036257602002820191906000526020600020905b81548152602001906001019080831161034e575b50505050509050919050565b60026020819052600091825260409091208054600182015492820180546001600160a01b039283169490921692916103a590610cba565b80601f01602080910402602001604051908101604052809291908181526020018280546103d190610cba565b801561041e5780601f106103f35761010080835404028352916020019161041e565b820191906000526020600020905b81548152906001019060200180831161040157829003601f168201915b50505050509080600301805461043390610cba565b80601f016020809104026020016040519081016040528092919081815260200182805461045f90610cba565b80156104ac5780601f10610481576101008083540402835291602001916104ac565b820191906000526020600020905b81548152906001019060200180831161048f57829003601f168201915b50505050600483015460059093015491929160ff16905086565b6001600160a01b038116600090815260036020908152604091829020805483518184028101840190945280845260609392830182828015610362576020028201919060005260206000209081548152602001906001019080831161034e5750505050509050919050565b6000818152600260205260409020600481015461058b5760405162461bcd60e51b815260206004820152601460248201527310db185a5b48191bd95cc81b9bdd08195e1a5cdd60621b60448201526064015b60405180910390fd5b600581015460ff16156105d35760405162461bcd60e51b815260206004820152601060248201526f105b1c9958591e481d995c9a599a595960821b6044820152606401610582565b60018101546001600160a01b03163314806105f857506000546001600160a01b031633145b6106355760405162461bcd60e51b815260206004820152600e60248201526d139bdd08185d5d1a1bdc9a5e995960921b6044820152606401610582565b60058101805460ff19166001179055604051339083907f119c632db3d6f10445a49579e66bcdb959e6d6d08813402e950c6527edb09dc890600090a35050565b60055460009060ff16156106cb5760405162461bcd60e51b815260206004820152601760248201527f536f7665726569676e4c65646765723a207061757365640000000000000000006044820152606401610582565b836107105760405162461bcd60e51b815260206004820152601560248201527414d95cdcda5bdb881a185cda081c995c5d5a5c9959605a1b6044820152606401610582565b61010084111561075a5760405162461bcd60e51b815260206004820152601560248201527453657373696f6e206861736820746f6f206c6f6e6760581b6044820152606401610582565b600060015490506040518060c00160405280896001600160a01b03168152602001886001600160a01b0316815260200187878080601f016020809104026020016040519081016040528093929190818152602001838380828437600092019190915250505090825250604080516020601f88018190048102820181019092528681529181019190879087908190840183828082843760009201829052509385525050426020808501919091526040938401839052858352600280825292849020855181546001600160a01b03199081166001600160a01b0392831617835592870151600183018054909416911617909155928401519183019161085e915082610d59565b50606082015160038201906108739082610d59565b50608082015160048281019190915560a0909201516005909101805460ff19169115159190911790556001600160a01b03898116600090815260036020908152604080832080546001818101835591855283852001879055938c168352938152928120805480840182559082529281209092018390558054916108f583610e19565b9190505550866001600160a01b0316886001600160a01b0316827f595ff63837faa0b593af9d1a51233bf4d73a09b91eadf72c9eab8dd48c6c4fbf8989898942604051610946959493929190610e69565b60405180910390a4979650505050505050565b6109616109d2565b6001600160a01b0381166109c65760405162461bcd60e51b815260206004820152602660248201527f4f776e61626c653a206e6577206f776e657220697320746865207a65726f206160448201526564647265737360d01b6064820152608401610582565b6109cf81610a2c565b50565b6000546001600160a01b031633146102bb5760405162461bcd60e51b815260206004820181905260248201527f4f776e61626c653a2063616c6c6572206973206e6f7420746865206f776e65726044820152606401610582565b600080546001600160a01b038381166001600160a01b0319831681178455604051919092169283917f8be0079c531659141344cd1fd0a4f28419497f9722a3daafe3b4186f6b6457e09190a35050565b80356001600160a01b0381168114610a9357600080fd5b919050565b60008060408385031215610aab57600080fd5b610ab483610a7c565b946020939093013593505050565b600060208284031215610ad457600080fd5b610add82610a7c565b9392505050565b6020808252825182820181905260009190848201906040850190845b81811015610b1c57835183529284019291840191600101610b00565b50909695505050505050565b600060208284031215610b3a57600080fd5b5035919050565b6000815180845260005b81811015610b6757602081850181015186830182015201610b4b565b506000602082860101526020601f19601f83011685010191505092915050565b6001600160a01b0387811682528616602082015260c060408201819052600090610bb390830187610b41565b8281036060840152610bc58187610b41565b6080840195909552505090151560a090910152949350505050565b60008083601f840112610bf257600080fd5b50813567ffffffffffffffff811115610c0a57600080fd5b602083019150836020828501011115610c2257600080fd5b9250929050565b60008060008060008060808789031215610c4257600080fd5b610c4b87610a7c565b9550610c5960208801610a7c565b9450604087013567ffffffffffffffff80821115610c7657600080fd5b610c828a838b01610be0565b90965094506060890135915080821115610c9b57600080fd5b50610ca889828a01610be0565b979a9699509497509295939492505050565b600181811c90821680610cce57607f821691505b602082108103610cee57634e487b7160e01b600052602260045260246000fd5b50919050565b634e487b7160e01b600052604160045260246000fd5b601f821115610d5457600081815260208120601f850160051c81016020861015610d315750805b601f850160051c820191505b81811015610d5057828155600101610d3d565b5050505b505050565b815167ffffffffffffffff811115610d7357610d73610cf4565b610d8781610d818454610cba565b84610d0a565b602080601f831160018114610dbc5760008415610da45750858301515b600019600386901b1c1916600185901b178555610d50565b600085815260208120601f198616915b82811015610deb57888601518255948401946001909101908401610dcc565b5085821015610e095787850151600019600388901b60f8161c191681555b5050505050600190811b01905550565b600060018201610e3957634e487b7160e01b600052601160045260246000fd5b5060010190565b81835281816020850137506000828201602090810191909152601f909101601f19169091010190565b606081526000610e7d606083018789610e40565b8281036020840152610e90818688610e40565b915050826040830152969550505050505056fea2646970667358221220e029aa854e46cb71ece3152c59e145e420bd055c3c6976ef6c0dba2c58f7ed8364736f6c63430008140033",
  "linkReferences": {},
  "deployedLinkReferences": {}
}